{
  "abi": [
    {
      "inputs": [
        {
          "internalType": "address",
          "name": "dataTokenHub",
          "type": "address"
        }
      ],
      "stateMutability": "nonpayable",
      "type": "constructor"
    },
    {
      "inputs": [],
      "name": "CreatorNotMatch",
      "type": "error"
    },
    {
      "inputs": [],
      "name": "SignatureExpired",
      "type": "error"
    },
    {
      "anonymous": false,
      "inputs": [
        {
          "indexed": true,
          "internalType": "address",
          "name": "owner",
          "type": "address"
        },
        {
          "indexed": true,
          "internalType": "address",
          "name": "approved",
          "type": "address"
        },
        {
          "indexed": true,
          "internalType": "uint256",
          "name": "tokenId",
          "type": "uint256"
        }
      ],
      "name": "Approval",
      "type": "event"
    },
    {
      "anonymous": false,
      "inputs": [
        {
          "indexed": true,
          "internalType": "address",
          "name": "owner",
          "type": "address"
        },
        {
          "indexed": true,
          "internalType": "address",
          "name": "operator",
          "type": "address"
        },
        {
          "indexed": false,
          "internalType": "bool",
          "name": "approved",
          "type": "bool"
        }
      ],
      "name": "ApprovalForAll",
      "type": "event"
    },
    {
      "anonymous": false,
      "inputs": [
        {
          "indexed": true,
          "internalType": "address",
          "name": "previousOwner",
          "type": "address"
        },
        {
          "indexed": true,
          "internalType": "address",
          "name": "newOwner",
          "type": "address"
        }
      ],
      "name": "OwnershipTransferred",
      "type": "event"
    },
    {
      "anonymous": false,
      "inputs": [
        {
          "indexed": true,
          "internalType": "address",
          "name": "from",
          "type": "address"
        },
        {
          "indexed": true,
          "internalType": "address",
          "name": "to",
          "type": "address"
        },
        {
          "indexed": true,
          "internalType": "uint256",
          "name": "tokenId",
          "type": "uint256"
        }
      ],
      "name": "Transfer",
      "type": "event"
    },
    {
      "inputs": [
        {
          "internalType": "address",
          "name": "to",
          "type": "address"
        },
        {
          "internalType": "uint256",
          "name": "tokenId",
          "type": "uint256"
        }
      ],
      "name": "approve",
      "outputs": [],
      "stateMutability": "nonpayable",
      "type": "function"
    },
    {
      "inputs": [
        {
          "internalType": "address",
          "name": "owner",
          "type": "address"
        }
      ],
      "name": "balanceOf",
      "outputs": [
        {
          "internalType": "uint256",
          "name": "",
          "type": "uint256"
        }
      ],
      "stateMutability": "view",
      "type": "function"
    },
    {
      "inputs": [
        {
          "internalType": "bytes",
          "name": "initVars",
          "type": "bytes"
        }
      ],
      "name": "createDataToken",
      "outputs": [
        {
          "internalType": "address",
          "name": "",
          "type": "address"
        }
      ],
      "stateMutability": "nonpayable",
      "type": "function"
    },
    {
      "inputs": [
        {
          "internalType": "bytes",
          "name": "initVars",
          "type": "bytes"
        }
      ],
      "name": "createDataTokenWithSig",
      "outputs": [
        {
          "internalType": "address",
          "name": "",
          "type": "address"
        }
      ],
      "stateMutability": "nonpayable",
      "type": "function"
    },
    {
      "inputs": [
        {
          "internalType": "uint256",
          "name": "tokenId",
          "type": "uint256"
        }
      ],
      "name": "getApproved",
      "outputs": [
        {
          "internalType": "address",
          "name": "",
          "type": "address"
        }
      ],
      "stateMutability": "view",
      "type": "function"
    },
    {
      "inputs": [],
      "name": "getDomainSeparator",
      "outputs": [
        {
          "internalType": "bytes32",
          "name": "",
          "type": "bytes32"
        }
      ],
      "stateMutability": "view",
      "type": "function"
    },
    {
      "inputs": [
        {
          "internalType": "address",
          "name": "dataToken",
          "type": "address"
        }
      ],
      "name": "getOwnerByDataToken",
      "outputs": [
        {
          "internalType": "address",
          "name": "",
          "type": "address"
        }
      ],
      "stateMutability": "view",
      "type": "function"
    },
    {
      "inputs": [
        {
          "internalType": "address",
          "name": "dataToken",
          "type": "address"
        }
      ],
      "name": "getPubIdByDataToken",
      "outputs": [
        {
          "internalType": "uint256",
          "name": "",
          "type": "uint256"
        }
      ],
      "stateMutability": "view",
      "type": "function"
    },
    {
      "inputs": [
        {
          "internalType": "address",
          "name": "owner",
          "type": "address"
        },
        {
          "internalType": "address",
          "name": "operator",
          "type": "address"
        }
      ],
      "name": "isApprovedForAll",
      "outputs": [
        {
          "internalType": "bool",
          "name": "",
          "type": "bool"
        }
      ],
      "stateMutability": "view",
      "type": "function"
    },
    {
      "inputs": [],
      "name": "name",
      "outputs": [
        {
          "internalType": "string",
          "name": "",
          "type": "string"
        }
      ],
      "stateMutability": "view",
      "type": "function"
    },
    {
      "inputs": [],
      "name": "owner",
      "outputs": [
        {
          "internalType": "address",
          "name": "",
          "type": "address"
        }
      ],
      "stateMutability": "view",
      "type": "function"
    },
    {
      "inputs": [
        {
          "internalType": "uint256",
          "name": "tokenId",
          "type": "uint256"
        }
      ],
      "name": "ownerOf",
      "outputs": [
        {
          "internalType": "address",
          "name": "",
          "type": "address"
        }
      ],
      "stateMutability": "view",
      "type": "function"
    },
    {
      "inputs": [],
      "name": "renounceOwnership",
      "outputs": [],
      "stateMutability": "nonpayable",
      "type": "function"
    },
    {
      "inputs": [
        {
          "internalType": "address",
          "name": "from",
          "type": "address"
        },
        {
          "internalType": "address",
          "name": "to",
          "type": "address"
        },
        {
          "internalType": "uint256",
          "name": "tokenId",
          "type": "uint256"
        }
      ],
      "name": "safeTransferFrom",
      "outputs": [],
      "stateMutability": "nonpayable",
      "type": "function"
    },
    {
      "inputs": [
        {
          "internalType": "address",
          "name": "from",
          "type": "address"
        },
        {
          "internalType": "address",
          "name": "to",
          "type": "address"
        },
        {
          "internalType": "uint256",
          "name": "tokenId",
          "type": "uint256"
        },
        {
          "internalType": "bytes",
          "name": "data",
          "type": "bytes"
        }
      ],
      "name": "safeTransferFrom",
      "outputs": [],
      "stateMutability": "nonpayable",
      "type": "function"
    },
    {
      "inputs": [
        {
          "internalType": "address",
          "name": "operator",
          "type": "address"
        },
        {
          "internalType": "bool",
          "name": "approved",
          "type": "bool"
        }
      ],
      "name": "setApprovalForAll",
      "outputs": [],
      "stateMutability": "nonpayable",
      "type": "function"
    },
    {
      "inputs": [
        {
          "internalType": "address",
          "name": "",
          "type": "address"
        }
      ],
      "name": "sigNonces",
      "outputs": [
        {
          "internalType": "uint256",
          "name": "",
          "type": "uint256"
        }
      ],
      "stateMutability": "view",
      "type": "function"
    },
    {
      "inputs": [
        {
          "internalType": "bytes4",
          "name": "interfaceId",
          "type": "bytes4"
        }
      ],
      "name": "supportsInterface",
      "outputs": [
        {
          "internalType": "bool",
          "name": "",
          "type": "bool"
        }
      ],
      "stateMutability": "pure",
      "type": "function"
    },
    {
      "inputs": [],
      "name": "symbol",
      "outputs": [
        {
          "internalType": "string",
          "name": "",
          "type": "string"
        }
      ],
      "stateMutability": "view",
      "type": "function"
    },
    {
      "inputs": [
        {
          "internalType": "uint256",
          "name": "tokenId",
          "type": "uint256"
        }
      ],
      "name": "tokenURI",
      "outputs": [
        {
          "internalType": "string",
          "name": "",
          "type": "string"
        }
      ],
      "stateMutability": "view",
      "type": "function"
    },
    {
      "inputs": [
        {
          "internalType": "address",
          "name": "from",
          "type": "address"
        },
        {
          "internalType": "address",
          "name": "to",
          "type": "address"
        },
        {
          "internalType": "uint256",
          "name": "tokenId",
          "type": "uint256"
        }
      ],
      "name": "transferFrom",
      "outputs": [],
      "stateMutability": "nonpayable",
      "type": "function"
    },
    {
      "inputs": [
        {
          "internalType": "address",
          "name": "newOwner",
          "type": "address"
        }
      ],
      "name": "transferOwnership",
      "outputs": [],
      "stateMutability": "nonpayable",
      "type": "function"
    }
  ],
  "bytecode": {
    "object": "0x61016060405260006008553480156200001757600080fd5b50604051620041d3380380620041d38339810160408190526200003a91620002cc565b6040518060400160405280601b81526020017f50726f66696c656c65737344617461546f6b656e466163746f72790000000000815250604051806040016040528060038152602001620312e360ec1b81525081816040518060400160405280601781526020017f50726f66696c656c657373546f6b656e466163746f7279000000000000000000815250604051806040016040528060098152602001682230ba30aa37b5b2b760b91b81525062000100620000fa620001d260201b60201c565b620001d6565b81516200011590600290602085019062000226565b5080516200012b90600390602084019062000226565b5050825160209384012082519284019290922060e08390526101008190524660a0818152604080517f8b73c3c69bb8fe3d512ecc4cf759cc79239f7b179b0ffacaa9a75d522b39400f818901819052818301979097526060810194909452608080850193909352308483018190528151808603909301835260c094850190915281519190960120905292909252610120525050506001600160a01b0316610140526200033b565b3390565b600080546001600160a01b038381166001600160a01b0319831681178455604051919092169283917f8be0079c531659141344cd1fd0a4f28419497f9722a3daafe3b4186f6b6457e09190a35050565b8280546200023490620002fe565b90600052602060002090601f016020900481019282620002585760008555620002a3565b82601f106200027357805160ff1916838001178555620002a3565b82800160010185558215620002a3579182015b82811115620002a357825182559160200191906001019062000286565b50620002b1929150620002b5565b5090565b5b80821115620002b15760008155600101620002b6565b600060208284031215620002df57600080fd5b81516001600160a01b0381168114620002f757600080fd5b9392505050565b600181811c908216806200031357607f821691505b602082108114156200033557634e487b7160e01b600052602260045260246000fd5b50919050565b60805160a05160c05160e051610100516101205161014051613e366200039d60003960008181610e8f0152610f19015260006113a9015260006113f8015260006113d30152600061132a01526000611355015260006113800152613e366000f3fe60806040523480156200001157600080fd5b50600436106200015d5760003560e01c80638da5cb5b11620000c7578063e985e9c51162000086578063e985e9c51462000304578063ed24911d1462000343578063ed9ee85a146200034d578063f2fde38b1462000364578063f4a9fbba146200037b578063f990ccd714620003a757600080fd5b80638da5cb5b14620002a357806395d89b4114620002b5578063a22cb46514620002bf578063b88d4fde14620002d6578063c87b56dd14620002ed57600080fd5b806323b872dd116200012057806323b872dd146200021757806342842e0e146200022e5780636352211e14620002455780636d50b073146200025c57806370a082311462000273578063715018a6146200029957600080fd5b806301ffc9a7146200016257806306fdde03146200019e578063081812fc14620001b7578063095ea7b314620001e757806322d6180e1462000200575b600080fd5b62000189620001733660046200173a565b6001600160e01b0319166376cf742d60e11b1490565b60405190151581526020015b60405180910390f35b620001a8620003ca565b604051620001959190620017b7565b620001ce620001c8366004620017cc565b62000464565b6040516001600160a01b03909116815260200162000195565b620001fe620001f8366004620017fc565b6200048d565b005b620001ce620002113660046200182b565b620005b2565b620001fe620002283660046200184b565b620005dc565b620001fe6200023f3660046200184b565b62000614565b620001ce62000256366004620017cc565b62000631565b620001ce6200026d366004620019be565b62000693565b6200028a620002843660046200182b565b620007e8565b60405190815260200162000195565b620001fe62000870565b6000546001600160a01b0316620001ce565b620001a862000888565b620001fe620002d0366004620019f7565b62000899565b620001fe620002e736600462001a39565b620008aa565b620001a8620002fe366004620017cc565b620008e9565b620001896200031536600462001aad565b6001600160a01b03918216600090815260076020908152604080832093909416825291909152205460ff1690565b6200028a62000966565b620001ce6200035e36600462001ae0565b62000977565b620001fe620003753660046200182b565b6200099e565b6200028a6200038c3660046200182b565b6001600160a01b031660009081526009602052604090205490565b6200028a620003b83660046200182b565b600a6020526000908152604090205481565b606060028054620003db9062001b57565b80601f0160208091040260200160405190810160405280929190818152602001828054620004099062001b57565b80156200045a5780601f106200042e576101008083540402835291602001916200045a565b820191906000526020600020905b8154815290600101906020018083116200043c57829003601f168201915b5050505050905090565b6000620004718262000a1d565b506000908152600660205260409020546001600160a01b031690565b60006200049a8262000631565b9050806001600160a01b0316836001600160a01b031614156200050e5760405162461bcd60e51b815260206004820152602160248201527f4552433732313a20617070726f76616c20746f2063757272656e74206f776e656044820152603960f91b60648201526084015b60405180910390fd5b336001600160a01b03821614806200052d57506200052d813362000315565b620005a15760405162461bcd60e51b815260206004820152603e60248201527f4552433732313a20617070726f76652063616c6c6572206973206e6f7420746f60448201527f6b656e206f776e6572206e6f7220617070726f76656420666f7220616c6c0000606482015260840162000505565b620005ad838362000a7e565b505050565b6001600160a01b038116600090815260096020526040812054620005d69062000631565b92915050565b620005e8338262000aee565b620006075760405162461bcd60e51b8152600401620005059062001b94565b620005ad83838362000b72565b620005ad83838360405180602001604052806000815250620008aa565b6000818152600460205260408120546001600160a01b031680620005d65760405162461bcd60e51b8152602060048201526018602482015277115490cdcc8c4e881a5b9d985b1a59081d1bdad95b88125160421b604482015260640162000505565b600080600083806020019051810190620006ae919062001cf0565b915091506000620007986200078d6040518060a001604052806079815260200162003d886079913980516020918201208651805190830120878301516040808a015180519086012089516001600160a01b03166000908152600a9096529085208054949593949293919291620007248362001de2565b909155506020808a015160600151604051620007719796959493920195865260208601949094526001600160a01b039290921660408501526060840152608083015260a082015260c00190565b6040516020818303038152906040528051906020012062000d1a565b836020015162000d6b565b9050806001600160a01b031682600001516001600160a01b031614620007d157604051630e15f8f160e21b815260040160405180910390fd5b8151620007df908462000e14565b95945050505050565b60006001600160a01b038216620008545760405162461bcd60e51b815260206004820152602960248201527f4552433732313a2061646472657373207a65726f206973206e6f7420612076616044820152683634b21037bbb732b960b91b606482015260840162000505565b506001600160a01b031660009081526005602052604090205490565b6200087a62001050565b620008866000620010ac565b565b606060038054620003db9062001b57565b620008a6338383620010fc565b5050565b620008b6338362000aee565b620008d55760405162461bcd60e51b8152600401620005059062001b94565b620008e384848484620011cd565b50505050565b6060620008f68262000a1d565b60006200090e60408051602081019091526000815290565b905060008151116200093057604051806020016040528060008152506200095f565b806200093c8462001207565b6040516020016200094f92919062001e00565b6040516020818303038152906040525b9392505050565b6000620009726200131d565b905090565b600080620009888385018562001e33565b905062000996338262000e14565b949350505050565b620009a862001050565b6001600160a01b03811662000a0f5760405162461bcd60e51b815260206004820152602660248201527f4f776e61626c653a206e6577206f776e657220697320746865207a65726f206160448201526564647265737360d01b606482015260840162000505565b62000a1a81620010ac565b50565b6000818152600460205260409020546001600160a01b031662000a1a5760405162461bcd60e51b8152602060048201526018602482015277115490cdcc8c4e881a5b9d985b1a59081d1bdad95b88125160421b604482015260640162000505565b600081815260066020526040902080546001600160a01b0319166001600160a01b038416908117909155819062000ab58262000631565b6001600160a01b03167f8c5be1e5ebec7d5bd14f71427d1e84f3dd0314c0f7b2291e5b200ac8c7c3b92560405160405180910390a45050565b60008062000afc8362000631565b9050806001600160a01b0316846001600160a01b0316148062000b4457506001600160a01b0380821660009081526007602090815260408083209388168352929052205460ff165b80620009965750836001600160a01b031662000b608462000464565b6001600160a01b031614949350505050565b826001600160a01b031662000b878262000631565b6001600160a01b03161462000bed5760405162461bcd60e51b815260206004820152602560248201527f4552433732313a207472616e736665722066726f6d20696e636f72726563742060448201526437bbb732b960d91b606482015260840162000505565b6001600160a01b03821662000c515760405162461bcd60e51b8152602060048201526024808201527f4552433732313a207472616e7366657220746f20746865207a65726f206164646044820152637265737360e01b606482015260840162000505565b62000c5e60008262000a7e565b6001600160a01b038316600090815260056020526040812080546001929062000c8990849062001ef9565b90915550506001600160a01b038216600090815260056020526040812080546001929062000cb990849062001f13565b909155505060008181526004602052604080822080546001600160a01b0319166001600160a01b0386811691821790925591518493918716917fddf252ad1be2c89b69c2b068fc378daa952ba7f163c4a11628f55a4df523b3ef91a4505050565b6000620005d662000d2a6200131d565b8360405161190160f01b6020820152602281018390526042810182905260009060620160405160208183030381529060405280519060200120905092915050565b6000428260600151101562000d9357604051630819bdcd60e01b815260040160405180910390fd5b60006001848460000151856020015186604001516040516000815260200160405260405162000dde949392919093845260ff9290921660208401526040830152606082015260800190565b6020604051602081039080840390855afa15801562000e01573d6000803e3d6000fd5b5050604051601f19015195945050505050565b60008062000e228462001446565b905062000e62604051806080016040528060006001600160a01b03168152602001600081526020016000815260200160006001600160a01b031681525090565b308152600060208083018290526040808401859052908601516001600160a01b03166060840152855190517f00000000000000000000000000000000000000000000000000000000000000009190849062000ebd9062001715565b62000ecb9392919062001f2e565b604051809103906000f08015801562000ee8573d6000803e3d6000fd5b506040516308a085bf60e31b81526001600160a01b03888116600483015230602483015280831660448301529192507f0000000000000000000000000000000000000000000000000000000000000000909116906345042df890606401600060405180830381600087803b15801562000f6057600080fd5b505af115801562000f75573d6000803e3d6000fd5b5050505084602001516001600160a01b031663948643aa848760400151846040518463ffffffff1660e01b815260040162000fb39392919062001f86565b6000604051808303816000875af115801562000fd3573d6000803e3d6000fd5b505050506040513d6000823e601f3d908101601f1916820160405262000ffd919081019062001fb9565b506001600160a01b038082166000818152600960205260408082208790555191923092908a16917fd15f2abb68eb5f74592571af0a6fd857dfb18f355d049ab278c88ff617f408ae91a495945050505050565b6000546001600160a01b03163314620008865760405162461bcd60e51b815260206004820181905260248201527f4f776e61626c653a2063616c6c6572206973206e6f7420746865206f776e6572604482015260640162000505565b600080546001600160a01b038381166001600160a01b0319831681178455604051919092169283917f8be0079c531659141344cd1fd0a4f28419497f9722a3daafe3b4186f6b6457e09190a35050565b816001600160a01b0316836001600160a01b03161415620011605760405162461bcd60e51b815260206004820152601960248201527f4552433732313a20617070726f766520746f2063616c6c657200000000000000604482015260640162000505565b6001600160a01b03838116600081815260076020908152604080832094871680845294825291829020805460ff191686151590811790915591519182527f17307eab39ab6107e8899845ad3d59bd9653f200f220920489ca2b5937696c31910160405180910390a3505050565b620011da84848462000b72565b620011e88484848462001472565b620008e35760405162461bcd60e51b8152600401620005059062001ff2565b6060816200122c5750506040805180820190915260018152600360fc1b602082015290565b8160005b81156200125c5780620012438162001de2565b9150620012549050600a836200205a565b915062001230565b60008167ffffffffffffffff8111156200127a576200127a62001891565b6040519080825280601f01601f191660200182016040528015620012a5576020820181803683370190505b5090505b84156200099657620012bd60018362001ef9565b9150620012cc600a8662002071565b620012d990603062001f13565b60f81b818381518110620012f157620012f162002088565b60200101906001600160f81b031916908160001a90535062001315600a866200205a565b9450620012a9565b6000306001600160a01b037f0000000000000000000000000000000000000000000000000000000000000000161480156200137757507f000000000000000000000000000000000000000000000000000000000000000046145b15620013a257507f000000000000000000000000000000000000000000000000000000000000000090565b50604080517f00000000000000000000000000000000000000000000000000000000000000006020808301919091527f0000000000000000000000000000000000000000000000000000000000000000828401527f000000000000000000000000000000000000000000000000000000000000000060608301524660808301523060a0808401919091528351808403909101815260c0909201909252805191012090565b600062001456826008546200157d565b60088054906000620014688362001de2565b9091555092915050565b60006001600160a01b0384163b156200157257604051630a85bd0160e11b81526001600160a01b0385169063150b7a0290620014b99033908990889088906004016200209e565b6020604051808303816000875af1925050508015620014f7575060408051601f3d908101601f19168201909252620014f491810190620020dd565b60015b62001557573d80801562001528576040519150601f19603f3d011682016040523d82523d6000602084013e6200152d565b606091505b5080516200154f5760405162461bcd60e51b8152600401620005059062001ff2565b805181602001fd5b6001600160e01b031916630a85bd0160e11b14905062000996565b506001949350505050565b620008a68282604051806020016040528060008152506200159f8383620015cd565b620015ae600084848462001472565b620005ad5760405162461bcd60e51b8152600401620005059062001ff2565b6001600160a01b038216620016255760405162461bcd60e51b815260206004820181905260248201527f4552433732313a206d696e7420746f20746865207a65726f2061646472657373604482015260640162000505565b6000818152600460205260409020546001600160a01b0316156200168c5760405162461bcd60e51b815260206004820152601c60248201527f4552433732313a20746f6b656e20616c7265616479206d696e74656400000000604482015260640162000505565b6001600160a01b0382166000908152600560205260408120805460019290620016b790849062001f13565b909155505060008181526004602052604080822080546001600160a01b0319166001600160a01b03861690811790915590518392907fddf252ad1be2c89b69c2b068fc378daa952ba7f163c4a11628f55a4df523b3ef908290a45050565b611c8a80620020fe83390190565b6001600160e01b03198116811462000a1a57600080fd5b6000602082840312156200174d57600080fd5b81356200095f8162001723565b60005b83811015620017775781810151838201526020016200175d565b83811115620008e35750506000910152565b60008151808452620017a38160208601602086016200175a565b601f01601f19169290920160200192915050565b6020815260006200095f602083018462001789565b600060208284031215620017df57600080fd5b5035919050565b6001600160a01b038116811462000a1a57600080fd5b600080604083850312156200181057600080fd5b82356200181d81620017e6565b946020939093013593505050565b6000602082840312156200183e57600080fd5b81356200095f81620017e6565b6000806000606084860312156200186157600080fd5b83356200186e81620017e6565b925060208401356200188081620017e6565b929592945050506040919091013590565b634e487b7160e01b600052604160045260246000fd5b6040516080810167ffffffffffffffff81118282101715620018cd57620018cd62001891565b60405290565b6040516060810167ffffffffffffffff81118282101715620018cd57620018cd62001891565b604051601f8201601f1916810167ffffffffffffffff8111828210171562001925576200192562001891565b604052919050565b600067ffffffffffffffff8211156200194a576200194a62001891565b50601f01601f191660200190565b60006200196f62001969846200192d565b620018f9565b90508281528383830111156200198457600080fd5b828260208301376000602084830101529392505050565b600082601f830112620019ad57600080fd5b6200095f8383356020850162001958565b600060208284031215620019d157600080fd5b813567ffffffffffffffff811115620019e957600080fd5b62000996848285016200199b565b6000806040838503121562001a0b57600080fd5b823562001a1881620017e6565b91506020830135801515811462001a2e57600080fd5b809150509250929050565b6000806000806080858703121562001a5057600080fd5b843562001a5d81620017e6565b9350602085013562001a6f81620017e6565b925060408501359150606085013567ffffffffffffffff81111562001a9357600080fd5b62001aa1878288016200199b565b91505092959194509250565b6000806040838503121562001ac157600080fd5b823562001ace81620017e6565b9150602083013562001a2e81620017e6565b6000806020838503121562001af457600080fd5b823567ffffffffffffffff8082111562001b0d57600080fd5b818501915085601f83011262001b2257600080fd5b81358181111562001b3257600080fd5b86602082850101111562001b4557600080fd5b60209290920196919550909350505050565b600181811c9082168062001b6c57607f821691505b6020821081141562001b8e57634e487b7160e01b600052602260045260246000fd5b50919050565b6020808252602e908201527f4552433732313a2063616c6c6572206973206e6f7420746f6b656e206f776e6560408201526d1c881b9bdc88185c1c1c9bdd995960921b606082015260800190565b600062001bf362001969846200192d565b905082815283838301111562001c0857600080fd5b6200095f8360208301846200175a565b600082601f83011262001c2a57600080fd5b6200095f8383516020850162001be2565b600081830360a081121562001c4f57600080fd5b6040516040810181811067ffffffffffffffff8211171562001c755762001c7562001891565b8060405250809250835162001c8a81620017e6565b81526080601f198301121562001c9f57600080fd5b62001ca9620018a7565b9150602084015160ff8116811462001cc057600080fd5b80835250604084015160208301526060840151604083015260808401516060830152816020820152505092915050565b60008060c0838503121562001d0457600080fd5b825167ffffffffffffffff8082111562001d1d57600080fd5b908401906060828703121562001d3257600080fd5b62001d3c620018d3565b82518281111562001d4c57600080fd5b8301601f8101881362001d5e57600080fd5b62001d6f8882516020840162001be2565b825250602083015162001d8281620017e6565b602082015260408301518281111562001d9a57600080fd5b62001da88882860162001c18565b60408301525080945050505062001dc3846020850162001c3b565b90509250929050565b634e487b7160e01b600052601160045260246000fd5b600060001982141562001df95762001df962001dcc565b5060010190565b6000835162001e148184602088016200175a565b83519083019062001e2a8183602088016200175a565b01949350505050565b60006020828403121562001e4657600080fd5b813567ffffffffffffffff8082111562001e5f57600080fd5b908301906060828603121562001e7457600080fd5b62001e7e620018d3565b82358281111562001e8e57600080fd5b8301601f8101871362001ea057600080fd5b62001eb18782356020840162001958565b825250602083013562001ec481620017e6565b602082015260408301358281111562001edc57600080fd5b62001eea878286016200199b565b60408301525095945050505050565b60008282101562001f0e5762001f0e62001dcc565b500390565b6000821982111562001f295762001f2962001dcc565b500190565b600060018060a01b03808616835260c0602084015262001f5260c084018662001789565b915080845116604084015260208401516060840152604084015160808401528060608501511660a084015250949350505050565b83815260606020820152600062001fa1606083018562001789565b905060018060a01b0383166040830152949350505050565b60006020828403121562001fcc57600080fd5b815167ffffffffffffffff81111562001fe457600080fd5b620009968482850162001c18565b60208082526032908201527f4552433732313a207472616e7366657220746f206e6f6e20455243373231526560408201527131b2b4bb32b91034b6b83632b6b2b73a32b960711b606082015260800190565b634e487b7160e01b600052601260045260246000fd5b6000826200206c576200206c62002044565b500490565b60008262002083576200208362002044565b500690565b634e487b7160e01b600052603260045260246000fd5b6001600160a01b0385811682528416602082015260408101839052608060608201819052600090620020d39083018462001789565b9695505050505050565b600060208284031215620020f057600080fd5b81516200095f816200172356fe60c06040526000600c553480156200001657600080fd5b5060405162001c8a38038062001c8a8339810160408190526200003991620002e0565b8282828282826040518060400160405280601581526020017f44617461546f6b656e2d416363657373546f6b656e0000000000000000000000815250604051806040016040528060048152602001631115105560e21b8152508160009080519060200190620000aa9291906200015b565b508051620000c09060019060208401906200015b565b50508151600680546001600160a01b03199081166001600160a01b0393841617909155602080850151600755604080860151600855606086015160098054909416908516179092559186166080523360a0528051808201909152848152428183015284519092508291600a916200013d918391908801906200015b565b50602082015181600101559050505050505050505050505062000405565b8280546200016990620003c8565b90600052602060002090601f0160209004810192826200018d5760008555620001d8565b82601f10620001a857805160ff1916838001178555620001d8565b82800160010185558215620001d8579182015b82811115620001d8578251825591602001919060010190620001bb565b50620001e6929150620001ea565b5090565b5b80821115620001e65760008155600101620001eb565b80516001600160a01b03811681146200021957600080fd5b919050565b634e487b7160e01b600052604160045260246000fd5b604051601f8201601f191681016001600160401b03811182821017156200025f576200025f6200021e565b604052919050565b6000608082840312156200027a57600080fd5b604051608081016001600160401b03811182821017156200029f576200029f6200021e565b604052905080620002b08362000201565b81526020830151602082015260408301516040820152620002d46060840162000201565b60608201525092915050565b600080600060c08486031215620002f657600080fd5b620003018462000201565b602085810151919450906001600160401b03808211156200032157600080fd5b818701915087601f8301126200033657600080fd5b8151818111156200034b576200034b6200021e565b6200035f601f8201601f1916850162000234565b915080825288848285010111156200037657600080fd5b60005b818110156200039657838101850151838201860152840162000379565b81811115620003a85760008583850101525b5050809450505050620003bf856040860162000267565b90509250925092565b600181811c90821680620003dd57607f821691505b60208210811415620003ff57634e487b7160e01b600052602260045260246000fd5b50919050565b60805160a0516118626200042860003960005050600061084501526118626000f3fe608060405234801561001057600080fd5b50600436106101375760003560e01c806377b46d4d116100b8578063a22cb4651161007c578063a22cb46514610303578063a9b5ffd914610316578063b88d4fde14610329578063c7ed115e1461033c578063c87b56dd1461036e578063e985e9c51461038157600080fd5b806377b46d4d1461023f5780637a5b4f591461024757806383e46e781461020357806395d89b41146102e85780639824aab5146102f057600080fd5b80634209a2e1116100ff5780634209a2e1146101dd57806342842e0e146101f05780634ccb20c0146102035780636352211e1461020b57806370a082311461021e57600080fd5b806301ffc9a71461013c57806306fdde0314610175578063081812fc1461018a578063095ea7b3146101b557806323b872dd146101ca575b600080fd5b61016061014a3660046111e4565b6001600160e01b03191663152a902d60e11b1490565b60405190151581526020015b60405180910390f35b61017d6103bd565b60405161016c9190611259565b61019d61019836600461126c565b61044f565b6040516001600160a01b03909116815260200161016c565b6101c86101c336600461129a565b610476565b005b6101c86101d83660046112c6565b610591565b6101c86101eb36600461126c565b6105c2565b6101c86101fe3660046112c6565b6105fd565b61019d610618565b61019d61021936600461126c565b610627565b61023161022c366004611307565b61068d565b60405190815260200161016c565b61017d610713565b6102a960408051608081018252600080825260208201819052918101829052606081019190915250604080516080810182526006546001600160a01b039081168252600754602083015260085492820192909252600954909116606082015290565b60405161016c919081516001600160a01b0390811682526020808401519083015260408084015190830152606092830151169181019190915260800190565b61017d610725565b6101606102fe366004611307565b610734565b6101c8610311366004611324565b61077a565b6101c8610324366004611427565b610789565b6101c861033736600461145c565b6108a9565b61034f61034a3660046114c8565b6108e1565b604080516001600160a01b03909316835260208301919091520161016c565b61017d61037c36600461126c565b610912565b61016061038f3660046114ea565b6001600160a01b03918216600090815260056020908152604080832093909416825291909152205460ff1690565b6060600080546103cc90611518565b80601f01602080910402602001604051908101604052809291908181526020018280546103f890611518565b80156104455780601f1061041a57610100808354040283529160200191610445565b820191906000526020600020905b81548152906001019060200180831161042857829003601f168201915b5050505050905090565b600061045a82610986565b506000908152600460205260409020546001600160a01b031690565b600061048182610627565b9050806001600160a01b0316836001600160a01b031614156104f45760405162461bcd60e51b815260206004820152602160248201527f4552433732313a20617070726f76616c20746f2063757272656e74206f776e656044820152603960f91b60648201526084015b60405180910390fd5b336001600160a01b03821614806105105750610510813361038f565b6105825760405162461bcd60e51b815260206004820152603e60248201527f4552433732313a20617070726f76652063616c6c6572206973206e6f7420746f60448201527f6b656e206f776e6572206e6f7220617070726f76656420666f7220616c6c000060648201526084016104eb565b61058c83836109e8565b505050565b61059b3382610a56565b6105b75760405162461bcd60e51b81526004016104eb90611553565b61058c838383610ad5565b6105ca610c71565b6127108111156105f8576040516309e77b6f60e01b81526004810182905261271060248201526044016104eb565b600d55565b61058c838383604051806020016040528060008152506108a9565b6000610622610cac565b905090565b6000818152600260205260408120546001600160a01b0316806106875760405162461bcd60e51b8152602060048201526018602482015277115490cdcc8c4e881a5b9d985b1a59081d1bdad95b88125160421b60448201526064016104eb565b92915050565b60006001600160a01b0382166106f75760405162461bcd60e51b815260206004820152602960248201527f4552433732313a2061646472657373207a65726f206973206e6f7420612076616044820152683634b21037bbb732b960b91b60648201526084016104eb565b506001600160a01b031660009081526003602052604090205490565b6060600a60000180546103cc90611518565b6060600180546103cc90611518565b6000816001600160a01b0316610748610cac565b6001600160a01b03161480610765575060006107638361068d565b115b1561077257506001919050565b506000919050565b610785338383610d19565b5050565b600080828060200190518101906107a091906115a1565b6009546008546040516303adc86f60e11b81529395509193506001600160a01b03169163075b90de916107d9918690869060040161162e565b600060405180830381600087803b1580156107f357600080fd5b505af1158015610807573d6000803e3d6000fd5b50505050600061081683610de8565b6040516367b8366160e11b81526001600160a01b038581166004830152306024830152604482018390529192507f00000000000000000000000000000000000000000000000000000000000000009091169063cf706cc290606401600060405180830381600087803b15801561088b57600080fd5b505af115801561089f573d6000803e3d6000fd5b5050505050505050565b6108b33383610a56565b6108cf5760405162461bcd60e51b81526004016104eb90611553565b6108db84848484610e10565b50505050565b6000806108ec610cac565b612710600d54856108fd9190611677565b61090791906116ac565b915091509250929050565b606061091d82610986565b600061093460408051602081019091526000815290565b90506000815111610954576040518060200160405280600081525061097f565b8061095e84610e43565b60405160200161096f9291906116c0565b6040516020818303038152906040525b9392505050565b6000818152600260205260409020546001600160a01b03166109e55760405162461bcd60e51b8152602060048201526018602482015277115490cdcc8c4e881a5b9d985b1a59081d1bdad95b88125160421b60448201526064016104eb565b50565b600081815260046020526040902080546001600160a01b0319166001600160a01b0384169081179091558190610a1d82610627565b6001600160a01b03167f8c5be1e5ebec7d5bd14f71427d1e84f3dd0314c0f7b2291e5b200ac8c7c3b92560405160405180910390a45050565b600080610a6283610627565b9050806001600160a01b0316846001600160a01b03161480610aa957506001600160a01b0380821660009081526005602090815260408083209388168352929052205460ff165b80610acd5750836001600160a01b0316610ac28461044f565b6001600160a01b0316145b949350505050565b826001600160a01b0316610ae882610627565b6001600160a01b031614610b4c5760405162461bcd60e51b815260206004820152602560248201527f4552433732313a207472616e736665722066726f6d20696e636f72726563742060448201526437bbb732b960d91b60648201526084016104eb565b6001600160a01b038216610bae5760405162461bcd60e51b8152602060048201526024808201527f4552433732313a207472616e7366657220746f20746865207a65726f206164646044820152637265737360e01b60648201526084016104eb565b610bb96000826109e8565b6001600160a01b0383166000908152600360205260408120805460019290610be29084906116ef565b90915550506001600160a01b0382166000908152600360205260408120805460019290610c10908490611706565b909155505060008181526002602052604080822080546001600160a01b0319166001600160a01b0386811691821790925591518493918716917fddf252ad1be2c89b69c2b068fc378daa952ba7f163c4a11628f55a4df523b3ef91a4505050565b610c79610cac565b6001600160a01b0316336001600160a01b031614610caa5760405163562c533160e01b815260040160405180910390fd5b565b60065460405163116b0c0760e11b81523060048201526000916001600160a01b0316906322d6180e90602401602060405180830381865afa158015610cf5573d6000803e3d6000fd5b505050506040513d601f19601f82011682018060405250810190610622919061171e565b816001600160a01b0316836001600160a01b03161415610d7b5760405162461bcd60e51b815260206004820152601960248201527f4552433732313a20617070726f766520746f2063616c6c65720000000000000060448201526064016104eb565b6001600160a01b03838116600081815260056020908152604080832094871680845294825291829020805460ff191686151590811790915591519182527f17307eab39ab6107e8899845ad3d59bd9653f200f220920489ca2b5937696c31910160405180910390a3505050565b6000610df682600c54610f41565b600c8054906000610e068361173b565b9091555092915050565b610e1b848484610ad5565b610e2784848484610f5b565b6108db5760405162461bcd60e51b81526004016104eb90611756565b606081610e675750506040805180820190915260018152600360fc1b602082015290565b8160005b8115610e915780610e7b8161173b565b9150610e8a9050600a836116ac565b9150610e6b565b60008167ffffffffffffffff811115610eac57610eac611362565b6040519080825280601f01601f191660200182016040528015610ed6576020820181803683370190505b5090505b8415610acd57610eeb6001836116ef565b9150610ef8600a866117a8565b610f03906030611706565b60f81b818381518110610f1857610f186117bc565b60200101906001600160f81b031916908160001a905350610f3a600a866116ac565b9450610eda565b610785828260405180602001604052806000815250611059565b60006001600160a01b0384163b1561104e57604051630a85bd0160e11b81526001600160a01b0385169063150b7a0290610f9f9033908990889088906004016117d2565b6020604051808303816000875af1925050508015610fda575060408051601f3d908101601f19168201909252610fd79181019061180f565b60015b611034573d808015611008576040519150601f19603f3d011682016040523d82523d6000602084013e61100d565b606091505b50805161102c5760405162461bcd60e51b81526004016104eb90611756565b805181602001fd5b6001600160e01b031916630a85bd0160e11b149050610acd565b506001949350505050565b611063838361108c565b6110706000848484610f5b565b61058c5760405162461bcd60e51b81526004016104eb90611756565b6001600160a01b0382166110e25760405162461bcd60e51b815260206004820181905260248201527f4552433732313a206d696e7420746f20746865207a65726f206164647265737360448201526064016104eb565b6000818152600260205260409020546001600160a01b0316156111475760405162461bcd60e51b815260206004820152601c60248201527f4552433732313a20746f6b656e20616c7265616479206d696e7465640000000060448201526064016104eb565b6001600160a01b0382166000908152600360205260408120805460019290611170908490611706565b909155505060008181526002602052604080822080546001600160a01b0319166001600160a01b03861690811790915590518392907fddf252ad1be2c89b69c2b068fc378daa952ba7f163c4a11628f55a4df523b3ef908290a45050565b6001600160e01b0319811681146109e557600080fd5b6000602082840312156111f657600080fd5b813561097f816111ce565b60005b8381101561121c578181015183820152602001611204565b838111156108db5750506000910152565b60008151808452611245816020860160208601611201565b601f01601f19169290920160200192915050565b60208152600061097f602083018461122d565b60006020828403121561127e57600080fd5b5035919050565b6001600160a01b03811681146109e557600080fd5b600080604083850312156112ad57600080fd5b82356112b881611285565b946020939093013593505050565b6000806000606084860312156112db57600080fd5b83356112e681611285565b925060208401356112f681611285565b929592945050506040919091013590565b60006020828403121561131957600080fd5b813561097f81611285565b6000806040838503121561133757600080fd5b823561134281611285565b91506020830135801515811461135757600080fd5b809150509250929050565b634e487b7160e01b600052604160045260246000fd5b604051601f8201601f1916810167ffffffffffffffff811182821017156113a1576113a1611362565b604052919050565b600067ffffffffffffffff8211156113c3576113c3611362565b50601f01601f191660200190565b600082601f8301126113e257600080fd5b81356113f56113f0826113a9565b611378565b81815284602083860101111561140a57600080fd5b816020850160208301376000918101602001919091529392505050565b60006020828403121561143957600080fd5b813567ffffffffffffffff81111561145057600080fd5b610acd848285016113d1565b6000806000806080858703121561147257600080fd5b843561147d81611285565b9350602085013561148d81611285565b925060408501359150606085013567ffffffffffffffff8111156114b057600080fd5b6114bc878288016113d1565b91505092959194509250565b600080604083850312156114db57600080fd5b50508035926020909101359150565b600080604083850312156114fd57600080fd5b823561150881611285565b9150602083013561135781611285565b600181811c9082168061152c57607f821691505b6020821081141561154d57634e487b7160e01b600052602260045260246000fd5b50919050565b6020808252602e908201527f4552433732313a2063616c6c6572206973206e6f7420746f6b656e206f776e6560408201526d1c881b9bdc88185c1c1c9bdd995960921b606082015260800190565b600080604083850312156115b457600080fd5b82516115bf81611285565b602084015190925067ffffffffffffffff8111156115dc57600080fd5b8301601f810185136115ed57600080fd5b80516115fb6113f0826113a9565b81815286602083850101111561161057600080fd5b611621826020830160208601611201565b8093505050509250929050565b8381526001600160a01b03831660208201526060604082018190526000906116589083018461122d565b95945050505050565b634e487b7160e01b600052601160045260246000fd5b600081600019048311821515161561169157611691611661565b500290565b634e487b7160e01b600052601260045260246000fd5b6000826116bb576116bb611696565b500490565b600083516116d2818460208801611201565b8351908301906116e6818360208801611201565b01949350505050565b60008282101561170157611701611661565b500390565b6000821982111561171957611719611661565b500190565b60006020828403121561173057600080fd5b815161097f81611285565b600060001982141561174f5761174f611661565b5060010190565b60208082526032908201527f4552433732313a207472616e7366657220746f206e6f6e20455243373231526560408201527131b2b4bb32b91034b6b83632b6b2b73a32b960711b606082015260800190565b6000826117b7576117b7611696565b500690565b634e487b7160e01b600052603260045260246000fd5b6001600160a01b03858116825284166020820152604081018390526080606082018190526000906118059083018461122d565b9695505050505050565b60006020828403121561182157600080fd5b815161097f816111ce56fea2646970667358221220fd9d7e15198a81190360c2f85ec66aed94944aa71b08213c825ece13576898b264736f6c634300080a003343726561746544617461546f6b656e5769746853696728737472696e6720636f6e74656e745552492c6164647265737320636f6c6c6563744d6f64756c652c627974657320636f6c6c6563744d6f64756c65496e6974446174612c75696e74323536206e6f6e63652c75696e32353620646561646c696e6529a2646970667358221220f1a0cfbae4fd06e3734ee72c6b9d1e5f998807c4bfda35665d8fca8560332dee64736f6c634300080a0033",
    "linkReferences": {}
  },
  "methodIdentifiers": {
    "approve(address,uint256)": "095ea7b3",
    "balanceOf(address)": "70a08231",
    "createDataToken(bytes)": "ed9ee85a",
    "createDataTokenWithSig(bytes)": "6d50b073",
    "getApproved(uint256)": "081812fc",
    "getDomainSeparator()": "ed24911d",
    "getOwnerByDataToken(address)": "22d6180e",
    "getPubIdByDataToken(address)": "f4a9fbba",
    "isApprovedForAll(address,address)": "e985e9c5",
    "name()": "06fdde03",
    "owner()": "8da5cb5b",
    "ownerOf(uint256)": "6352211e",
    "renounceOwnership()": "715018a6",
    "safeTransferFrom(address,address,uint256)": "42842e0e",
    "safeTransferFrom(address,address,uint256,bytes)": "b88d4fde",
    "setApprovalForAll(address,bool)": "a22cb465",
    "sigNonces(address)": "f990ccd7",
    "supportsInterface(bytes4)": "01ffc9a7",
    "symbol()": "95d89b41",
    "tokenURI(uint256)": "c87b56dd",
    "transferFrom(address,address,uint256)": "23b872dd",
    "transferOwnership(address)": "f2fde38b"
  },
  "id": 109
}