{
  "abi": [
    {
      "inputs": [
        {
          "internalType": "address",
          "name": "cyberProfileNFT",
          "type": "address"
        },
        {
          "internalType": "address",
          "name": "dataTokenHub",
          "type": "address"
        }
      ],
      "stateMutability": "nonpayable",
      "type": "constructor"
    },
    {
      "inputs": [
        {
          "internalType": "address",
          "name": "account",
          "type": "address"
        }
      ],
      "name": "NotProfileOwner",
      "type": "error"
    },
    {
      "anonymous": false,
      "inputs": [
        {
          "indexed": true,
          "internalType": "address",
          "name": "previousOwner",
          "type": "address"
        },
        {
          "indexed": true,
          "internalType": "address",
          "name": "newOwner",
          "type": "address"
        }
      ],
      "name": "OwnershipTransferred",
      "type": "event"
    },
    {
      "inputs": [
        {
          "internalType": "bytes",
          "name": "initVars",
          "type": "bytes"
        }
      ],
      "name": "createDataToken",
      "outputs": [
        {
          "internalType": "address",
          "name": "",
          "type": "address"
        }
      ],
      "stateMutability": "nonpayable",
      "type": "function"
    },
    {
      "inputs": [
        {
          "internalType": "bytes",
          "name": "initVars",
          "type": "bytes"
        }
      ],
      "name": "createDataTokenWithSig",
      "outputs": [
        {
          "internalType": "address",
          "name": "",
          "type": "address"
        }
      ],
      "stateMutability": "nonpayable",
      "type": "function"
    },
    {
      "inputs": [],
      "name": "owner",
      "outputs": [
        {
          "internalType": "address",
          "name": "",
          "type": "address"
        }
      ],
      "stateMutability": "view",
      "type": "function"
    },
    {
      "inputs": [],
      "name": "renounceOwnership",
      "outputs": [],
      "stateMutability": "nonpayable",
      "type": "function"
    },
    {
      "inputs": [
        {
          "internalType": "bytes4",
          "name": "interfaceId",
          "type": "bytes4"
        }
      ],
      "name": "supportsInterface",
      "outputs": [
        {
          "internalType": "bool",
          "name": "",
          "type": "bool"
        }
      ],
      "stateMutability": "pure",
      "type": "function"
    },
    {
      "inputs": [
        {
          "internalType": "address",
          "name": "newOwner",
          "type": "address"
        }
      ],
      "name": "transferOwnership",
      "outputs": [],
      "stateMutability": "nonpayable",
      "type": "function"
    }
  ],
  "bytecode": {
    "object": "0x60c060405234801561001057600080fd5b50604051611cca380380611cca83398101604081905261002f916100bb565b6100383361004f565b6001600160a01b0391821660a052166080526100ee565b600080546001600160a01b038381166001600160a01b0319831681178455604051919092169283917f8be0079c531659141344cd1fd0a4f28419497f9722a3daafe3b4186f6b6457e09190a35050565b80516001600160a01b03811681146100b657600080fd5b919050565b600080604083850312156100ce57600080fd5b6100d78361009f565b91506100e56020840161009f565b90509250929050565b60805160a051611b866101446000396000818161015e0152818161023e0152818161037901528181610435015281816104f9015281816105b8015261065701526000818161053e01526105eb0152611b866000f3fe60806040523480156200001157600080fd5b50600436106200006a5760003560e01c806301ffc9a7146200006f5780636d50b07314620000ab578063715018a614620000db5780638da5cb5b14620000e7578063ed9ee85a14620000f9578063f2fde38b1462000110575b600080fd5b62000096620000803660046200077d565b6001600160e01b0319166376cf742d60e11b1490565b60405190151581526020015b60405180910390f35b620000c2620000bc366004620007b0565b62000127565b6040516001600160a01b039091168152602001620000a2565b620000e5620001ef565b005b6000546001600160a01b0316620000c2565b620000c26200010a366004620007b0565b62000207565b620000e5620001213660046200084f565b620002f5565b60008080806200013a85870187620009f7565b82516040516331a9108f60e11b8152600481019190915292955090935091506000907f00000000000000000000000000000000000000000000000000000000000000006001600160a01b031690636352211e90602401602060405180830381865afa158015620001ae573d6000803e3d6000fd5b505050506040513d601f19601f82011682018060405250810190620001d4919062000b38565b9050620001e48185858562000374565b979650505050505050565b620001f9620006c3565b6200020560006200071f565b565b60008080806200021a85870187620009f7565b82516040516331a9108f60e11b8152600481019190915292955090935091506000907f00000000000000000000000000000000000000000000000000000000000000006001600160a01b031690636352211e90602401602060405180830381865afa1580156200028e573d6000803e3d6000fd5b505050506040513d601f19601f82011682018060405250810190620002b4919062000b38565b90506001600160a01b0381163314620002e7576040516303dc345d60e01b81523360048201526024015b60405180910390fd5b620001e48185858562000374565b620002ff620006c3565b6001600160a01b038116620003665760405162461bcd60e51b815260206004820152602660248201527f4f776e61626c653a206e6577206f776e657220697320746865207a65726f206160448201526564647265737360d01b6064820152608401620002de565b62000371816200071f565b50565b6000807f00000000000000000000000000000000000000000000000000000000000000006001600160a01b031663e5fee4798686866040518463ffffffff1660e01b8152600401620003c99392919062000bb9565b6020604051808303816000875af1158015620003e9573d6000803e3d6000fd5b505050506040513d601f19601f820116820180604052508101906200040f919062000c9e565b8551604051631037c74360e11b81526004810191909152602481018290529091506000907f00000000000000000000000000000000000000000000000000000000000000006001600160a01b03169063206f8e8690604401600060405180830381865afa15801562000485573d6000803e3d6000fd5b505050506040513d6000823e601f3d908101601f19168201604052620004af919081019062000cb8565b9050620004ef604051806080016040528060006001600160a01b03168152602001600081526020016000815260200160006001600160a01b031681525090565b6001600160a01b037f00000000000000000000000000000000000000000000000000000000000000008116825287516020830152604080830185905260808901519091166060830152516000907f000000000000000000000000000000000000000000000000000000000000000090849084906200056d906200076f565b6200057b9392919062000d38565b604051809103906000f08015801562000598573d6000803e3d6000fd5b506040516308a085bf60e31b81526001600160a01b038b811660048301527f00000000000000000000000000000000000000000000000000000000000000008116602483015280831660448301529192507f0000000000000000000000000000000000000000000000000000000000000000909116906345042df890606401600060405180830381600087803b1580156200063257600080fd5b505af115801562000647573d6000803e3d6000fd5b50505050806001600160a01b03167f00000000000000000000000000000000000000000000000000000000000000006001600160a01b03168a6001600160a01b03167fd15f2abb68eb5f74592571af0a6fd857dfb18f355d049ab278c88ff617f408ae60405160405180910390a493505050505b949350505050565b6000546001600160a01b03163314620002055760405162461bcd60e51b815260206004820181905260248201527f4f776e61626c653a2063616c6c6572206973206e6f7420746865206f776e65726044820152606401620002de565b600080546001600160a01b038381166001600160a01b0319831681178455604051919092169283917f8be0079c531659141344cd1fd0a4f28419497f9722a3daafe3b4186f6b6457e09190a35050565b610dc08062000d9183390190565b6000602082840312156200079057600080fd5b81356001600160e01b031981168114620007a957600080fd5b9392505050565b60008060208385031215620007c457600080fd5b823567ffffffffffffffff80821115620007dd57600080fd5b818501915085601f830112620007f257600080fd5b8135818111156200080257600080fd5b8660208285010111156200081557600080fd5b60209290920196919550909350505050565b6001600160a01b03811681146200037157600080fd5b80356200084a8162000827565b919050565b6000602082840312156200086257600080fd5b8135620007a98162000827565b634e487b7160e01b600052604160045260246000fd5b60405160e0810167ffffffffffffffff81118282101715620008ab57620008ab6200086f565b60405290565b604051601f8201601f1916810167ffffffffffffffff81118282101715620008dd57620008dd6200086f565b604052919050565b600067ffffffffffffffff8211156200090257620009026200086f565b50601f01601f191660200190565b600082601f8301126200092257600080fd5b8135620009396200093382620008e5565b620008b1565b8181528460208386010111156200094f57600080fd5b816020850160208301376000918101602001919091529392505050565b803580151581146200084a57600080fd5b6000608082840312156200099057600080fd5b6040516080810181811067ffffffffffffffff82111715620009b657620009b66200086f565b604052905080823560ff81168114620009ce57600080fd5b808252506020830135602082015260408301356040820152606083013560608201525092915050565b600080600060c0848603121562000a0d57600080fd5b833567ffffffffffffffff8082111562000a2657600080fd5b9085019060e0828803121562000a3b57600080fd5b62000a4562000885565b8235815260208301358281111562000a5c57600080fd5b62000a6a8982860162000910565b60208301525060408301358281111562000a8357600080fd5b62000a918982860162000910565b60408301525060608301358281111562000aaa57600080fd5b62000ab88982860162000910565b60608301525062000acc608084016200083d565b608082015262000adf60a084016200096c565b60a082015262000af260c084016200096c565b60c08201529450602086013591508082111562000b0e57600080fd5b5062000b1d8682870162000910565b92505062000b2f85604086016200097d565b90509250925092565b60006020828403121562000b4b57600080fd5b8151620007a98162000827565b60005b8381101562000b7557818101518382015260200162000b5b565b8381111562000b85576000848401525b50505050565b6000815180845262000ba581602086016020860162000b58565b601f01601f19169290920160200192915050565b60c08152835160c08201526000602085015160e08084015262000be16101a084018262000b8b565b9050604086015160bf19808584030161010086015262000c02838362000b8b565b92506060880151915080858403016101208601525062000c23828262000b8b565b60808801516001600160a01b031661014086015260a0880151151561016086015260c088015115156101808601528481036020860152915062000c699050818662000b8b565b915050620006bb604083018460ff81511682526020810151602083015260408101516040830152606081015160608301525050565b60006020828403121562000cb157600080fd5b5051919050565b60006020828403121562000ccb57600080fd5b815167ffffffffffffffff81111562000ce357600080fd5b8201601f8101841362000cf557600080fd5b805162000d066200093382620008e5565b81815285602083850101111562000d1c57600080fd5b62000d2f82602083016020860162000b58565b95945050505050565b600060018060a01b03808616835260c0602084015262000d5c60c084018662000b8b565b915080845116604084015260208401516060840152604084015160808401528060608501511660a08401525094935050505056fe60c06040523480156200001157600080fd5b5060405162000dc038038062000dc0833981016040819052620000349162000253565b8051600080546001600160a01b03199081166001600160a01b0393841617909155602080840151600155604080850151600255606085015160038054909416908516179092559185166080523360a05280518082019091528381524281830152835185928592859290918291600491620000b3918391880190620000ce565b50602082015181600101559050505050505050505062000377565b828054620000dc906200033b565b90600052602060002090601f0160209004810192826200010057600085556200014b565b82601f106200011b57805160ff19168380011785556200014b565b828001600101855582156200014b579182015b828111156200014b5782518255916020019190600101906200012e565b50620001599291506200015d565b5090565b5b808211156200015957600081556001016200015e565b80516001600160a01b03811681146200018c57600080fd5b919050565b634e487b7160e01b600052604160045260246000fd5b604051601f8201601f191681016001600160401b0381118282101715620001d257620001d262000191565b604052919050565b600060808284031215620001ed57600080fd5b604051608081016001600160401b038111828210171562000212576200021262000191565b604052905080620002238362000174565b81526020830151602082015260408301516040820152620002476060840162000174565b60608201525092915050565b600080600060c084860312156200026957600080fd5b620002748462000174565b602085810151919450906001600160401b03808211156200029457600080fd5b818701915087601f830112620002a957600080fd5b815181811115620002be57620002be62000191565b620002d2601f8201601f19168501620001a7565b91508082528884828501011115620002e957600080fd5b60005b8181101562000309578381018501518382018601528401620002ec565b818111156200031b5760008583850101525b5050809450505050620003328560408601620001da565b90509250925092565b600181811c908216806200035057607f821691505b6020821081036200037157634e487b7160e01b600052602260045260246000fd5b50919050565b60805160a051610a266200039a6000396000505060006104b90152610a266000f3fe608060405234801561001057600080fd5b50600436106100625760003560e01c80634ccb20c01461006757806377b46d4d1461008c5780637a5b4f59146100a157806383e46e78146100675780639824aab514610142578063a9b5ffd914610165575b600080fd5b61006f61017a565b6040516001600160a01b0390911681526020015b60405180910390f35b610094610189565b60405161008391906105f4565b61010360408051608081018252600080825260208201819052918101829052606081019190915250604080516080810182526000546001600160a01b039081168252600154602083015260025492820192909252600354909116606082015290565b604051610083919081516001600160a01b0390811682526020808401519083015260408084015190830152606092830151169181019190915260800190565b610155610150366004610626565b61021e565b6040519015158152602001610083565b6101786101733660046106db565b61035e565b005b6000610184610521565b905090565b60606004600001805461019b9061075b565b80601f01602080910402602001604051908101604052809291908181526020018280546101c79061075b565b80156102145780601f106101e957610100808354040283529160200191610214565b820191906000526020600020905b8154815290600101906020018083116101f757829003601f168201915b5050505050905090565b600061022861017a565b6001600160a01b0316826001600160a01b03160361024857506001919050565b60008054600154600254604051631525b8fd60e31b8152600481019290925260248201526001600160a01b039091169063a92dc7e890604401602060405180830381865afa15801561029e573d6000803e3d6000fd5b505050506040513d601f19601f820116820180604052508101906102c29190610795565b90506001600160a01b0381161580159061034757506040516370a0823160e01b81526001600160a01b038481166004830152600091908316906370a0823190602401602060405180830381865afa158015610321573d6000803e3d6000fd5b505050506040513d601f19601f8201168201806040525081019061034591906107b2565b115b156103555750600192915050565b50600192915050565b60008060008060008580602001905181019061037a919061089f565b60008054604051631500d99160e21b8152969b509499509297509095509350916001600160a01b03909116906354036644906103c29089908990899089908990600401610968565b6020604051808303816000875af11580156103e1573d6000803e3d6000fd5b505050506040513d601f19601f8201168201806040525081019061040591906107b2565b6000805460208901516040808b01519051631525b8fd60e31b81526004810192909252602482015292935090916001600160a01b039091169063a92dc7e890604401602060405180830381865afa158015610464573d6000803e3d6000fd5b505050506040513d601f19601f820116820180604052508101906104889190610795565b6040516367b8366160e11b81526001600160a01b0386811660048301528083166024830152604482018590529192507f00000000000000000000000000000000000000000000000000000000000000009091169063cf706cc290606401600060405180830381600087803b1580156104ff57600080fd5b505af1158015610513573d6000803e3d6000fd5b505050505050505050505050565b600080546001546040516331a9108f60e11b81526001600160a01b0390921691636352211e916105579160040190815260200190565b602060405180830381865afa158015610574573d6000803e3d6000fd5b505050506040513d601f19601f820116820180604052508101906101849190610795565b60005b838110156105b357818101518382015260200161059b565b838111156105c2576000848401525b50505050565b600081518084526105e0816020860160208601610598565b601f01601f19169290920160200192915050565b60208152600061060760208301846105c8565b9392505050565b6001600160a01b038116811461062357600080fd5b50565b60006020828403121561063857600080fd5b81356106078161060e565b634e487b7160e01b600052604160045260246000fd5b6040516060810167ffffffffffffffff8111828210171561067c5761067c610643565b60405290565b604051601f8201601f1916810167ffffffffffffffff811182821017156106ab576106ab610643565b604052919050565b600067ffffffffffffffff8211156106cd576106cd610643565b50601f01601f191660200190565b6000602082840312156106ed57600080fd5b813567ffffffffffffffff81111561070457600080fd5b8201601f8101841361071557600080fd5b8035610728610723826106b3565b610682565b81815285602083850101111561073d57600080fd5b81602084016020830137600091810160200191909152949350505050565b600181811c9082168061076f57607f821691505b60208210810361078f57634e487b7160e01b600052602260045260246000fd5b50919050565b6000602082840312156107a757600080fd5b81516106078161060e565b6000602082840312156107c457600080fd5b5051919050565b600082601f8301126107dc57600080fd5b81516107ea610723826106b3565b8181528460208386010111156107ff57600080fd5b610810826020830160208701610598565b949350505050565b80516108238161060e565b919050565b60006080828403121561083a57600080fd5b6040516080810181811067ffffffffffffffff8211171561085d5761085d610643565b8060405250809150825160ff8116811461087657600080fd5b808252506020830151602082015260408301516040820152606083015160608201525092915050565b60008060008060008587036101408112156108b957600080fd5b60608112156108c757600080fd5b506108d0610659565b86516108db8161060e565b81526020878101519082015260408088015190820152606087015190955067ffffffffffffffff8082111561090f57600080fd5b61091b89838a016107cb565b9550608088015191508082111561093157600080fd5b5061093e888289016107cb565b93505061094d60a08701610818565b915061095c8760c08801610828565b90509295509295909350565b600061014060018060a01b0380895116845260208901516020850152604089015160408501528160608501526109a0828501896105c8565b915083820360808501526109b482886105c8565b951660a08401525050815160ff1660c0820152602082015160e0820152604082015161010082015260609091015161012090910152939250505056fea2646970667358221220b59fbe04e318406b582ec8d2d8bfde14933178fcdac13aeb49a9c6d9e1cf082c64736f6c634300080e0033a2646970667358221220dd70b980751b5f9da76b56710333094558c23a14fc61c715b70c037787351a8264736f6c634300080e0033",
    "linkReferences": {}
  },
  "methodIdentifiers": {
    "createDataToken(bytes)": "ed9ee85a",
    "createDataTokenWithSig(bytes)": "6d50b073",
    "owner()": "8da5cb5b",
    "renounceOwnership()": "715018a6",
    "supportsInterface(bytes4)": "01ffc9a7",
    "transferOwnership(address)": "f2fde38b"
  },
  "id": 167
}