{
  "abi": [
    {
      "inputs": [
        {
          "internalType": "address",
          "name": "hub",
          "type": "address"
        }
      ],
      "stateMutability": "nonpayable",
      "type": "constructor"
    },
    {
      "inputs": [],
      "name": "FollowInvalid",
      "type": "error"
    },
    {
      "inputs": [],
      "name": "InitParamsInvalid",
      "type": "error"
    },
    {
      "inputs": [],
      "name": "NotHub",
      "type": "error"
    },
    {
      "inputs": [],
      "name": "HUB",
      "outputs": [
        {
          "internalType": "address",
          "name": "",
          "type": "address"
        }
      ],
      "stateMutability": "view",
      "type": "function"
    },
    {
      "inputs": [
        {
          "internalType": "uint256",
          "name": "profileId",
          "type": "uint256"
        },
        {
          "internalType": "uint256",
          "name": "pubId",
          "type": "uint256"
        },
        {
          "internalType": "bytes",
          "name": "data",
          "type": "bytes"
        }
      ],
      "name": "initializePublicationCollectModule",
      "outputs": [
        {
          "internalType": "bytes",
          "name": "",
          "type": "bytes"
        }
      ],
      "stateMutability": "nonpayable",
      "type": "function"
    },
    {
      "inputs": [
        {
          "internalType": "uint256",
          "name": "referrerProfileId",
          "type": "uint256"
        },
        {
          "internalType": "address",
          "name": "collector",
          "type": "address"
        },
        {
          "internalType": "uint256",
          "name": "profileId",
          "type": "uint256"
        },
        {
          "internalType": "uint256",
          "name": "pubId",
          "type": "uint256"
        },
        {
          "internalType": "bytes",
          "name": "data",
          "type": "bytes"
        }
      ],
      "name": "processCollect",
      "outputs": [],
      "stateMutability": "view",
      "type": "function"
    }
  ],
  "bytecode": {
    "object": "0x60a060405234801561001057600080fd5b506040516107f43803806107f483398101604081905261002f916100a0565b806001600160a01b038116610057576040516348be0eb360e01b815260040160405180910390fd5b6001600160a01b03811660808190526040514281527ff1a1fa6b64aa95186f5a1285e76198d0da80d9c5a88062641d447f1d7c54e56c9060200160405180910390a250506100d0565b6000602082840312156100b257600080fd5b81516001600160a01b03811681146100c957600080fd5b9392505050565b6080516106ef61010560003960008181604b0152818160cc015281816101cf015281816102ed01526103fb01526106ef6000f3fe608060405234801561001057600080fd5b50600436106100415760003560e01c8063a4c52b8614610046578063c233f9511461008a578063e49c3dda146100aa575b600080fd5b61006d7f000000000000000000000000000000000000000000000000000000000000000081565b6040516001600160a01b0390911681526020015b60405180910390f35b61009d610098366004610501565b6100bf565b6040516100819190610554565b6100bd6100b83660046105c1565b610184565b005b6060336001600160a01b037f0000000000000000000000000000000000000000000000000000000000000000161461010a576040516313bd2e8360e31b815260040160405180910390fd5b600061011883850185610642565b90508015610143576000868152602081815260408083208884529091529020805460ff191660011790555b83838080601f016020809104026020016040519081016040528093929190818152602001838380828437600092019190915250929998505050505050505050565b60008481526020818152604080832086845290915290205460ff16156101ae576101ae84866101b6565b505050505050565b604051633648f48360e21b8152600481018390526000907f00000000000000000000000000000000000000000000000000000000000000006001600160a01b03169063d923d20c90602401602060405180830381865afa15801561021e573d6000803e3d6000fd5b505050506040513d601f19601f820116820180604052508101906102429190610666565b905060006001600160a01b038216156102d4576040516311470f4360e21b8152600481018590526001600160a01b0384811660248301526000604483015283169063451c3d0c90606401602060405180830381865afa1580156102a9573d6000803e3d6000fd5b505050506040513d601f19601f820116820180604052508101906102cd9190610683565b90506103e6565b60405163a9ec656360e01b8152600481018590526000907f00000000000000000000000000000000000000000000000000000000000000006001600160a01b03169063a9ec656390602401602060405180830381865afa15801561033c573d6000803e3d6000fd5b505050506040513d601f19601f820116820180604052508101906103609190610666565b90506001600160a01b038116158015906103e257506040516370a0823160e01b81526001600160a01b0385811660048301528216906370a0823190602401602060405180830381865afa1580156103bb573d6000803e3d6000fd5b505050506040513d601f19601f820116820180604052508101906103df91906106a0565b15155b9150505b801580156104945750826001600160a01b03167f00000000000000000000000000000000000000000000000000000000000000006001600160a01b0316636352211e866040518263ffffffff1660e01b815260040161044791815260200190565b602060405180830381865afa158015610464573d6000803e3d6000fd5b505050506040513d601f19601f820116820180604052508101906104889190610666565b6001600160a01b031614155b156104b257604051636992d36b60e11b815260040160405180910390fd5b50505050565b60008083601f8401126104ca57600080fd5b50813567ffffffffffffffff8111156104e257600080fd5b6020830191508360208285010111156104fa57600080fd5b9250929050565b6000806000806060858703121561051757600080fd5b8435935060208501359250604085013567ffffffffffffffff81111561053c57600080fd5b610548878288016104b8565b95989497509550505050565b600060208083528351808285015260005b8181101561058157858101830151858201604001528201610565565b81811115610593576000604083870101525b50601f01601f1916929092016040019392505050565b6001600160a01b03811681146105be57600080fd5b50565b60008060008060008060a087890312156105da57600080fd5b8635955060208701356105ec816105a9565b94506040870135935060608701359250608087013567ffffffffffffffff81111561061657600080fd5b61062289828a016104b8565b979a9699509497509295939492505050565b80151581146105be57600080fd5b60006020828403121561065457600080fd5b813561065f81610634565b9392505050565b60006020828403121561067857600080fd5b815161065f816105a9565b60006020828403121561069557600080fd5b815161065f81610634565b6000602082840312156106b257600080fd5b505191905056fea26469706673582212200b1373209c28b769512d2c75bbb37b2024945fac6f1a59e77b44b5b837f8ad6a64736f6c634300080a0033",
    "linkReferences": {}
  },
  "methodIdentifiers": {
    "HUB()": "a4c52b86",
    "initializePublicationCollectModule(uint256,uint256,bytes)": "c233f951",
    "processCollect(uint256,address,uint256,uint256,bytes)": "e49c3dda"
  },
  "id": 13
}