{
  "abi": [
    {
      "inputs": [
        {
          "internalType": "address",
          "name": "lensHub",
          "type": "address"
        },
        {
          "internalType": "address",
          "name": "dataTokenHub",
          "type": "address"
        }
      ],
      "stateMutability": "nonpayable",
      "type": "constructor"
    },
    {
      "inputs": [
        {
          "internalType": "address",
          "name": "account",
          "type": "address"
        }
      ],
      "name": "NotProfileOwner",
      "type": "error"
    },
    {
      "anonymous": false,
      "inputs": [
        {
          "indexed": true,
          "internalType": "address",
          "name": "previousOwner",
          "type": "address"
        },
        {
          "indexed": true,
          "internalType": "address",
          "name": "newOwner",
          "type": "address"
        }
      ],
      "name": "OwnershipTransferred",
      "type": "event"
    },
    {
      "inputs": [
        {
          "internalType": "bytes",
          "name": "initVars",
          "type": "bytes"
        }
      ],
      "name": "createDataToken",
      "outputs": [
        {
          "internalType": "address",
          "name": "",
          "type": "address"
        }
      ],
      "stateMutability": "nonpayable",
      "type": "function"
    },
    {
      "inputs": [
        {
          "internalType": "bytes",
          "name": "initVars",
          "type": "bytes"
        }
      ],
      "name": "createDataTokenWithSig",
      "outputs": [
        {
          "internalType": "address",
          "name": "",
          "type": "address"
        }
      ],
      "stateMutability": "nonpayable",
      "type": "function"
    },
    {
      "inputs": [],
      "name": "owner",
      "outputs": [
        {
          "internalType": "address",
          "name": "",
          "type": "address"
        }
      ],
      "stateMutability": "view",
      "type": "function"
    },
    {
      "inputs": [],
      "name": "renounceOwnership",
      "outputs": [],
      "stateMutability": "nonpayable",
      "type": "function"
    },
    {
      "inputs": [
        {
          "internalType": "bytes4",
          "name": "interfaceId",
          "type": "bytes4"
        }
      ],
      "name": "supportsInterface",
      "outputs": [
        {
          "internalType": "bool",
          "name": "",
          "type": "bool"
        }
      ],
      "stateMutability": "pure",
      "type": "function"
    },
    {
      "inputs": [
        {
          "internalType": "address",
          "name": "newOwner",
          "type": "address"
        }
      ],
      "name": "transferOwnership",
      "outputs": [],
      "stateMutability": "nonpayable",
      "type": "function"
    }
  ],
  "bytecode": {
    "object": "0x60c060405234801561001057600080fd5b50604051611bd2380380611bd283398101604081905261002f916100bb565b6100383361004f565b6001600160a01b0391821660a052166080526100ee565b600080546001600160a01b038381166001600160a01b0319831681178455604051919092169283917f8be0079c531659141344cd1fd0a4f28419497f9722a3daafe3b4186f6b6457e09190a35050565b80516001600160a01b03811681146100b657600080fd5b919050565b600080604083850312156100ce57600080fd5b6100d78361009f565b91506100e56020840161009f565b90509250929050565b60805160a051611a8e610144600039600081816101570152818161022c015281816103650152818161041d015281816104e10152818161059f015261063e01526000818161052501526105d20152611a8e6000f3fe60806040523480156200001157600080fd5b50600436106200006a5760003560e01c806301ffc9a7146200006f5780636d50b07314620000ab578063715018a614620000db5780638da5cb5b14620000e7578063ed9ee85a14620000f9578063f2fde38b1462000110575b600080fd5b620000966200008036600462000760565b6001600160e01b0319166376cf742d60e11b1490565b60405190151581526020015b60405180910390f35b620000c2620000bc36600462000793565b62000127565b6040516001600160a01b039091168152602001620000a2565b620000e5620001e4565b005b6000546001600160a01b0316620000c2565b620000c26200010a36600462000793565b620001fc565b620000e56200012136600462000832565b620002e1565b6000806200013883850185620009c9565b80516040516331a9108f60e11b815260048101919091529091506000907f00000000000000000000000000000000000000000000000000000000000000006001600160a01b031690636352211e90602401602060405180830381865afa158015620001a7573d6000803e3d6000fd5b505050506040513d601f19601f82011682018060405250810190620001cd919062000ad1565b9050620001db818362000360565b95945050505050565b620001ee620006a6565b620001fa600062000702565b565b6000806200020d83850185620009c9565b80516040516331a9108f60e11b815260048101919091529091506000907f00000000000000000000000000000000000000000000000000000000000000006001600160a01b031690636352211e90602401602060405180830381865afa1580156200027c573d6000803e3d6000fd5b505050506040513d601f19601f82011682018060405250810190620002a2919062000ad1565b90506001600160a01b0381163314620002d5576040516303dc345d60e01b81523360048201526024015b60405180910390fd5b620001db818362000360565b620002eb620006a6565b6001600160a01b038116620003525760405162461bcd60e51b815260206004820152602660248201527f4f776e61626c653a206e6577206f776e657220697320746865207a65726f206160448201526564647265737360d01b6064820152608401620002cc565b6200035d8162000702565b50565b6000807f00000000000000000000000000000000000000000000000000000000000000006001600160a01b0316633b508132846040518263ffffffff1660e01b8152600401620003b1919062000b52565b6020604051808303816000875af1158015620003d1573d6000803e3d6000fd5b505050506040513d601f19601f82011682018060405250810190620003f7919062000c20565b8351604051635ad18a4b60e11b81526004810191909152602481018290529091506000907f00000000000000000000000000000000000000000000000000000000000000006001600160a01b03169063b5a3149690604401600060405180830381865afa1580156200046d573d6000803e3d6000fd5b505050506040513d6000823e601f3d908101601f1916820160405262000497919081019062000c3a565b9050620004d7604051806080016040528060006001600160a01b03168152602001600081526020016000815260200160006001600160a01b031681525090565b6001600160a01b037f000000000000000000000000000000000000000000000000000000000000000081168252855160208301526040808301859052808701519091166060830152516000907f00000000000000000000000000000000000000000000000000000000000000009084908490620005549062000752565b620005629392919062000cb1565b604051809103906000f0801580156200057f573d6000803e3d6000fd5b506040516308a085bf60e31b81526001600160a01b0389811660048301527f00000000000000000000000000000000000000000000000000000000000000008116602483015280831660448301529192507f0000000000000000000000000000000000000000000000000000000000000000909116906345042df890606401600060405180830381600087803b1580156200061957600080fd5b505af11580156200062e573d6000803e3d6000fd5b50505050806001600160a01b03167f00000000000000000000000000000000000000000000000000000000000000006001600160a01b0316886001600160a01b03167fd15f2abb68eb5f74592571af0a6fd857dfb18f355d049ab278c88ff617f408ae60405160405180910390a49695505050505050565b6000546001600160a01b03163314620001fa5760405162461bcd60e51b815260206004820181905260248201527f4f776e61626c653a2063616c6c6572206973206e6f7420746865206f776e65726044820152606401620002cc565b600080546001600160a01b038381166001600160a01b0319831681178455604051919092169283917f8be0079c531659141344cd1fd0a4f28419497f9722a3daafe3b4186f6b6457e09190a35050565b610d4f8062000d0a83390190565b6000602082840312156200077357600080fd5b81356001600160e01b0319811681146200078c57600080fd5b9392505050565b60008060208385031215620007a757600080fd5b823567ffffffffffffffff80821115620007c057600080fd5b818501915085601f830112620007d557600080fd5b813581811115620007e557600080fd5b866020828501011115620007f857600080fd5b60209290920196919550909350505050565b6001600160a01b03811681146200035d57600080fd5b80356200082d816200080a565b919050565b6000602082840312156200084557600080fd5b81356200078c816200080a565b634e487b7160e01b600052604160045260246000fd5b60405160e0810167ffffffffffffffff811182821017156200088e576200088e62000852565b60405290565b604051601f8201601f1916810167ffffffffffffffff81118282101715620008c057620008c062000852565b604052919050565b600067ffffffffffffffff821115620008e557620008e562000852565b50601f01601f191660200190565b600082601f8301126200090557600080fd5b81356200091c6200091682620008c8565b62000894565b8181528460208386010111156200093257600080fd5b816020850160208301376000918101602001919091529392505050565b6000608082840312156200096257600080fd5b6040516080810181811067ffffffffffffffff8211171562000988576200098862000852565b604052905080823560ff81168114620009a057600080fd5b808252506020830135602082015260408301356040820152606083013560608201525092915050565b600060208284031215620009dc57600080fd5b813567ffffffffffffffff80821115620009f557600080fd5b90830190610140828603121562000a0b57600080fd5b62000a1562000868565b8235815260208301358281111562000a2c57600080fd5b62000a3a87828601620008f3565b60208301525062000a4e6040840162000820565b604082015260608301358281111562000a6657600080fd5b62000a7487828601620008f3565b60608301525062000a886080840162000820565b608082015260a08301358281111562000aa057600080fd5b62000aae87828601620008f3565b60a08301525062000ac38660c085016200094f565b60c082015295945050505050565b60006020828403121562000ae457600080fd5b81516200078c816200080a565b60005b8381101562000b0e57818101518382015260200162000af4565b8381111562000b1e576000848401525b50505050565b6000815180845262000b3e81602086016020860162000af1565b601f01601f19169290920160200192915050565b602081528151602082015260006020830151610140604084015262000b7c61016084018262000b24565b60408501516001600160a01b03908116606086810191909152860151858303601f1990810160808801529293509162000bb6848462000b24565b93508160808801511660a087015260a08701519250808685030160c0870152505062000be3828262000b24565b60c0860151805160ff1660e08701526020810151610100870152604081015161012087015260608101516101408701529092509050509392505050565b60006020828403121562000c3357600080fd5b5051919050565b60006020828403121562000c4d57600080fd5b815167ffffffffffffffff81111562000c6557600080fd5b8201601f8101841362000c7757600080fd5b805162000c886200091682620008c8565b81815285602083850101111562000c9e57600080fd5b620001db82602083016020860162000af1565b600060018060a01b03808616835260c0602084015262000cd560c084018662000b24565b915080845116604084015260208401516060840152604084015160808401528060608501511660a08401525094935050505056fe60c06040523480156200001157600080fd5b5060405162000d4f38038062000d4f833981016040819052620000349162000253565b8051600080546001600160a01b03199081166001600160a01b0393841617909155602080840151600155604080850151600255606085015160038054909416908516179092559185166080523360a05280518082019091528381524281830152835185928592859290918291600491620000b3918391880190620000ce565b50602082015181600101559050505050505050505062000378565b828054620000dc906200033b565b90600052602060002090601f0160209004810192826200010057600085556200014b565b82601f106200011b57805160ff19168380011785556200014b565b828001600101855582156200014b579182015b828111156200014b5782518255916020019190600101906200012e565b50620001599291506200015d565b5090565b5b808211156200015957600081556001016200015e565b80516001600160a01b03811681146200018c57600080fd5b919050565b634e487b7160e01b600052604160045260246000fd5b604051601f8201601f191681016001600160401b0381118282101715620001d257620001d262000191565b604052919050565b600060808284031215620001ed57600080fd5b604051608081016001600160401b038111828210171562000212576200021262000191565b604052905080620002238362000174565b81526020830151602082015260408301516040820152620002476060840162000174565b60608201525092915050565b600080600060c084860312156200026957600080fd5b620002748462000174565b602085810151919450906001600160401b03808211156200029457600080fd5b818701915087601f830112620002a957600080fd5b815181811115620002be57620002be62000191565b620002d2601f8201601f19168501620001a7565b91508082528884828501011115620002e957600080fd5b60005b8181101562000309578381018501518382018601528401620002ec565b818111156200031b5760008583850101525b5050809450505050620003328560408601620001da565b90509250925092565b600181811c908216806200035057607f821691505b602082108114156200037257634e487b7160e01b600052602260045260246000fd5b50919050565b60805160a0516109b46200039b6000396000505060006104a001526109b46000f3fe608060405234801561001057600080fd5b50600436106100625760003560e01c80634ccb20c01461006757806377b46d4d1461008c5780637a5b4f59146100a157806383e46e78146100675780639824aab514610142578063a9b5ffd914610165575b600080fd5b61006f61017a565b6040516001600160a01b0390911681526020015b60405180910390f35b610094610189565b60405161008391906105d5565b61010360408051608081018252600080825260208201819052918101829052606081019190915250604080516080810182526000546001600160a01b039081168252600154602083015260025492820192909252600354909116606082015290565b604051610083919081516001600160a01b0390811682526020808401519083015260408084015190830152606092830151169181019190915260800190565b610155610150366004610607565b61021e565b6040519015158152602001610083565b6101786101733660046106bc565b61035f565b005b6000610184610502565b905090565b60606004600001805461019b9061073c565b80601f01602080910402602001604051908101604052809291908181526020018280546101c79061073c565b80156102145780601f106101e957610100808354040283529160200191610214565b820191906000526020600020905b8154815290600101906020018083116101f757829003601f168201915b5050505050905090565b600061022861017a565b6001600160a01b0316826001600160a01b0316141561024957506001919050565b600080546001546002546040516352aaef5560e01b8152600481019290925260248201526001600160a01b03909116906352aaef5590604401602060405180830381865afa15801561029f573d6000803e3d6000fd5b505050506040513d601f19601f820116820180604052508101906102c39190610777565b90506001600160a01b0381161580159061034857506040516370a0823160e01b81526001600160a01b038481166004830152600091908316906370a0823190602401602060405180830381865afa158015610322573d6000803e3d6000fd5b505050506040513d601f19601f820116820180604052508101906103469190610794565b115b156103565750600192915050565b50600092915050565b6000818060200190518101906103759190610824565b60008054604051632d22547960e21b815292935090916001600160a01b039091169063b48951e4906103ab908590600401610903565b6020604051808303816000875af11580156103ca573d6000803e3d6000fd5b505050506040513d601f19601f820116820180604052508101906103ee9190610794565b600080546001546002546040516352aaef5560e01b81526004810192909252602482015292935090916001600160a01b03909116906352aaef5590604401602060405180830381865afa158015610449573d6000803e3d6000fd5b505050506040513d601f19601f8201168201806040525081019061046d9190610777565b83516040516367b8366160e11b81526001600160a01b0391821660048201528183166024820152604481018590529192507f0000000000000000000000000000000000000000000000000000000000000000169063cf706cc290606401600060405180830381600087803b1580156104e457600080fd5b505af11580156104f8573d6000803e3d6000fd5b5050505050505050565b600080546001546040516331a9108f60e11b81526001600160a01b0390921691636352211e916105389160040190815260200190565b602060405180830381865afa158015610555573d6000803e3d6000fd5b505050506040513d601f19601f820116820180604052508101906101849190610777565b60005b8381101561059457818101518382015260200161057c565b838111156105a3576000848401525b50505050565b600081518084526105c1816020860160208601610579565b601f01601f19169290920160200192915050565b6020815260006105e860208301846105a9565b9392505050565b6001600160a01b038116811461060457600080fd5b50565b60006020828403121561061957600080fd5b81356105e8816105ef565b634e487b7160e01b600052604160045260246000fd5b60405160a0810167ffffffffffffffff8111828210171561065d5761065d610624565b60405290565b604051601f8201601f1916810167ffffffffffffffff8111828210171561068c5761068c610624565b604052919050565b600067ffffffffffffffff8211156106ae576106ae610624565b50601f01601f191660200190565b6000602082840312156106ce57600080fd5b813567ffffffffffffffff8111156106e557600080fd5b8201601f810184136106f657600080fd5b803561070961070482610694565b610663565b81815285602083850101111561071e57600080fd5b81602084016020830137600091810160200191909152949350505050565b600181811c9082168061075057607f821691505b6020821081141561077157634e487b7160e01b600052602260045260246000fd5b50919050565b60006020828403121561078957600080fd5b81516105e8816105ef565b6000602082840312156107a657600080fd5b5051919050565b6000608082840312156107bf57600080fd5b6040516080810181811067ffffffffffffffff821117156107e2576107e2610624565b8060405250809150825160ff811681146107fb57600080fd5b808252506020830151602082015260408301516040820152606083015160608201525092915050565b6000602080838503121561083757600080fd5b825167ffffffffffffffff8082111561084f57600080fd5b90840190610100828703121561086457600080fd5b61086c61063a565b8251610877816105ef565b815282840151848201526040808401519082015260608301518281111561089d57600080fd5b83019150601f820187136108b057600080fd5b81516108be61070482610694565b81815288868386010111156108d257600080fd5b6108e182878301888701610579565b6060830152506108f487608085016107ad565b60808201529695505050505050565b6020815260018060a01b0382511660208201526020820151604082015260408201516060820152600060608301516101008060808501526109486101208501836105a9565b60809590950151805160ff1660a0860152602081015160c0860152604081015160e086015260600151930192909252509091905056fea26469706673582212207c55c1566c4bd8419b9eaaed931d714ee5bf3dc40765336011b18313e3bb04c064736f6c634300080a0033a264697066735822122062a2a97a420f77eb1b7bd7f6109ad9e0d68b3eba26f60fbbdcc7f3a586ee2f1e64736f6c634300080a0033",
    "linkReferences": {}
  },
  "methodIdentifiers": {
    "createDataToken(bytes)": "ed9ee85a",
    "createDataTokenWithSig(bytes)": "6d50b073",
    "owner()": "8da5cb5b",
    "renounceOwnership()": "715018a6",
    "supportsInterface(bytes4)": "01ffc9a7",
    "transferOwnership(address)": "f2fde38b"
  },
  "id": 107
}