{
  "abi": [
    {
      "inputs": [
        {
          "internalType": "address",
          "name": "hub",
          "type": "address"
        },
        {
          "internalType": "address",
          "name": "moduleGlobals",
          "type": "address"
        }
      ],
      "stateMutability": "nonpayable",
      "type": "constructor"
    },
    {
      "inputs": [],
      "name": "FollowInvalid",
      "type": "error"
    },
    {
      "inputs": [],
      "name": "InitParamsInvalid",
      "type": "error"
    },
    {
      "inputs": [],
      "name": "ModuleDataMismatch",
      "type": "error"
    },
    {
      "inputs": [],
      "name": "NotHub",
      "type": "error"
    },
    {
      "inputs": [],
      "name": "HUB",
      "outputs": [
        {
          "internalType": "address",
          "name": "",
          "type": "address"
        }
      ],
      "stateMutability": "view",
      "type": "function"
    },
    {
      "inputs": [],
      "name": "MODULE_GLOBALS",
      "outputs": [
        {
          "internalType": "address",
          "name": "",
          "type": "address"
        }
      ],
      "stateMutability": "view",
      "type": "function"
    },
    {
      "inputs": [
        {
          "internalType": "uint256",
          "name": "profileId",
          "type": "uint256"
        },
        {
          "internalType": "uint256",
          "name": "pubId",
          "type": "uint256"
        }
      ],
      "name": "getPublicationData",
      "outputs": [
        {
          "components": [
            {
              "internalType": "uint256",
              "name": "amount",
              "type": "uint256"
            },
            {
              "internalType": "address",
              "name": "currency",
              "type": "address"
            },
            {
              "internalType": "address",
              "name": "recipient",
              "type": "address"
            },
            {
              "internalType": "uint16",
              "name": "referralFee",
              "type": "uint16"
            },
            {
              "internalType": "bool",
              "name": "followerOnly",
              "type": "bool"
            }
          ],
          "internalType": "struct ProfilePublicationData",
          "name": "",
          "type": "tuple"
        }
      ],
      "stateMutability": "view",
      "type": "function"
    },
    {
      "inputs": [
        {
          "internalType": "uint256",
          "name": "profileId",
          "type": "uint256"
        },
        {
          "internalType": "uint256",
          "name": "pubId",
          "type": "uint256"
        },
        {
          "internalType": "bytes",
          "name": "data",
          "type": "bytes"
        }
      ],
      "name": "initializePublicationCollectModule",
      "outputs": [
        {
          "internalType": "bytes",
          "name": "",
          "type": "bytes"
        }
      ],
      "stateMutability": "nonpayable",
      "type": "function"
    },
    {
      "inputs": [
        {
          "internalType": "uint256",
          "name": "referrerProfileId",
          "type": "uint256"
        },
        {
          "internalType": "address",
          "name": "collector",
          "type": "address"
        },
        {
          "internalType": "uint256",
          "name": "profileId",
          "type": "uint256"
        },
        {
          "internalType": "uint256",
          "name": "pubId",
          "type": "uint256"
        },
        {
          "internalType": "bytes",
          "name": "data",
          "type": "bytes"
        }
      ],
      "name": "processCollect",
      "outputs": [],
      "stateMutability": "nonpayable",
      "type": "function"
    }
  ],
  "bytecode": {
    "object": "0x60c060405234801561001057600080fd5b5060405161133438038061133483398101604081905261002f91610128565b81816001600160a01b038116610058576040516348be0eb360e01b815260040160405180910390fd5b6001600160a01b03811660808190526040514281527f4e84a529f4c627b5e787037d117873af1018768804cca3c7f0d47041fe2c89ed9060200160405180910390a2506001600160a01b0381166100c2576040516348be0eb360e01b815260040160405180910390fd5b6001600160a01b03811660a08190526040514281527ff1a1fa6b64aa95186f5a1285e76198d0da80d9c5a88062641d447f1d7c54e56c9060200160405180910390a250505061015b565b80516001600160a01b038116811461012357600080fd5b919050565b6000806040838503121561013b57600080fd5b6101448361010c565b91506101526020840161010c565b90509250929050565b60805160a05161117c6101b8600039600081816101a10152818161020501528181610371015281816104c1015281816105df015281816106ed0152610965015260008181610162015281816104350152610aa0015261117c6000f3fe608060405234801561001057600080fd5b50600436106100575760003560e01c80633f5038921461005c57806388ffe8511461015d578063a4c52b861461019c578063c233f951146101c3578063e49c3dda146101e3575b600080fd5b61010761006a366004610dc9565b6040805160a0810182526000808252602082018190529181018290526060810182905260808101919091525060009182526020828152604080842092845291815291819020815160a0810183528154815260018201546001600160a01b039081169482019490945260029091015492831691810191909152600160a01b820461ffff166060820152600160b01b90910460ff161515608082015290565b60408051825181526020808401516001600160a01b039081169183019190915283830151169181019190915260608083015161ffff169082015260809182015115159181019190915260a0015b60405180910390f35b6101847f000000000000000000000000000000000000000000000000000000000000000081565b6040516001600160a01b039091168152602001610154565b6101847f000000000000000000000000000000000000000000000000000000000000000081565b6101d66101d1366004610e34565b6101f8565b6040516101549190610edf565b6101f66101f1366004610f0a565b610366565b005b6060336001600160a01b037f00000000000000000000000000000000000000000000000000000000000000001614610243576040516313bd2e8360e31b815260040160405180910390fd5b60008080808061025587890189610f9b565b9450945094509450945061026884610413565b158061027b57506001600160a01b038316155b8061028b575061271061ffff8316115b80610294575084155b156102b2576040516348be0eb360e01b815260040160405180910390fd5b60008a8152602081815260408083208c84528252918290208781556001810180546001600160a01b0319166001600160a01b0389811691909117909155600290910180549187166001600160b01b031990921691909117600160a01b61ffff8716021760ff60b01b1916600160b01b851515021790558151601f8a018290048202810182019092528882528990899081908401838280828437600092019190915250929d9c50505050505050505050505050565b336001600160a01b037f000000000000000000000000000000000000000000000000000000000000000016146103af576040516313bd2e8360e31b815260040160405180910390fd5b600084815260208181526040808320868452909152902060020154600160b01b900460ff16156103e3576103e384866104a8565b838614156103fd576103f885858585856107aa565b61040b565b61040b86868686868661087f565b505050505050565b6040516343b938c560e01b81526001600160a01b0382811660048301526000917f0000000000000000000000000000000000000000000000000000000000000000909116906343b938c590602401602060405180830381865afa15801561047e573d6000803e3d6000fd5b505050506040513d601f19601f820116820180604052508101906104a29190611003565b92915050565b604051633648f48360e21b8152600481018390526000907f00000000000000000000000000000000000000000000000000000000000000006001600160a01b03169063d923d20c90602401602060405180830381865afa158015610510573d6000803e3d6000fd5b505050506040513d601f19601f820116820180604052508101906105349190611020565b905060006001600160a01b038216156105c6576040516311470f4360e21b8152600481018590526001600160a01b0384811660248301526000604483015283169063451c3d0c90606401602060405180830381865afa15801561059b573d6000803e3d6000fd5b505050506040513d601f19601f820116820180604052508101906105bf9190611003565b90506106d8565b60405163a9ec656360e01b8152600481018590526000907f00000000000000000000000000000000000000000000000000000000000000006001600160a01b03169063a9ec656390602401602060405180830381865afa15801561062e573d6000803e3d6000fd5b505050506040513d601f19601f820116820180604052508101906106529190611020565b90506001600160a01b038116158015906106d457506040516370a0823160e01b81526001600160a01b0385811660048301528216906370a0823190602401602060405180830381865afa1580156106ad573d6000803e3d6000fd5b505050506040513d601f19601f820116820180604052508101906106d1919061103d565b15155b9150505b801580156107865750826001600160a01b03167f00000000000000000000000000000000000000000000000000000000000000006001600160a01b0316636352211e866040518263ffffffff1660e01b815260040161073991815260200190565b602060405180830381865afa158015610756573d6000803e3d6000fd5b505050506040513d601f19601f8201168201806040525081019061077a9190611020565b6001600160a01b031614155b156107a457604051636992d36b60e11b815260040160405180910390fd5b50505050565b600084815260208181526040808320868452909152902080546001909101546001600160a01b03166107de84848385610a49565b6000806107e9610a9b565b60008a8152602081815260408083208c84529091528120600201549294509092506001600160a01b039091169061271061082761ffff85168861106c565b610831919061108b565b9050600061083f82886110ad565b90506108566001600160a01b0387168d8584610b27565b8115610871576108716001600160a01b0387168d8785610b27565b505050505050505050505050565b600084815260208181526040808320868452909152902080546001909101546001600160a01b03166108b384848385610a49565b600086815260208181526040808320888452909152812060020154600160a01b900461ffff169080806108e4610a9b565b90935090506127106108fa61ffff83168861106c565b610904919061108b565b91506000905061091482876110ad565b905083156109ea57600061271061092b868461106c565b610935919061108b565b905061094181836110ad565b6040516331a9108f60e11b8152600481018f90529092506000906001600160a01b037f00000000000000000000000000000000000000000000000000000000000000001690636352211e90602401602060405180830381865afa1580156109ac573d6000803e3d6000fd5b505050506040513d601f19601f820116820180604052508101906109d09190611020565b90506109e76001600160a01b0388168e8385610b27565b50505b60008a8152602081815260408083208c84529091529020600201546001600160a01b0390811690610a1f9087168d8385610b27565b8215610a3a57610a3a6001600160a01b0387168d8686610b27565b50505050505050505050505050565b600080610a58858701876110c4565b915091508281141580610a7d5750836001600160a01b0316826001600160a01b031614155b1561040b576040516346308bd560e01b815260040160405180910390fd5b6000807f00000000000000000000000000000000000000000000000000000000000000006001600160a01b03166398f965d16040518163ffffffff1660e01b81526004016040805180830381865afa158015610afb573d6000803e3d6000fd5b505050506040513d601f19601f82011682018060405250810190610b1f91906110f0565b915091509091565b604080516001600160a01b038581166024830152848116604483015260648083018590528351808403909101815260849092018352602080830180516001600160e01b03166323b872dd60e01b17905283518085019094528084527f5361666545524332303a206c6f772d6c6576656c2063616c6c206661696c6564908401526107a492879291600091610bbf918516908490610c46565b805190915015610c415780806020019051810190610bdd9190611003565b610c415760405162461bcd60e51b815260206004820152602a60248201527f5361666545524332303a204552433230206f7065726174696f6e20646964206e6044820152691bdd081cdd58d8d9595960b21b60648201526084015b60405180910390fd5b505050565b6060610c558484600085610c5f565b90505b9392505050565b606082471015610cc05760405162461bcd60e51b815260206004820152602660248201527f416464726573733a20696e73756666696369656e742062616c616e636520666f6044820152651c8818d85b1b60d21b6064820152608401610c38565b6001600160a01b0385163b610d175760405162461bcd60e51b815260206004820152601d60248201527f416464726573733a2063616c6c20746f206e6f6e2d636f6e74726163740000006044820152606401610c38565b600080866001600160a01b03168587604051610d33919061112a565b60006040518083038185875af1925050503d8060008114610d70576040519150601f19603f3d011682016040523d82523d6000602084013e610d75565b606091505b5091509150610d85828286610d90565b979650505050505050565b60608315610d9f575081610c58565b825115610daf5782518084602001fd5b8160405162461bcd60e51b8152600401610c389190610edf565b60008060408385031215610ddc57600080fd5b50508035926020909101359150565b60008083601f840112610dfd57600080fd5b50813567ffffffffffffffff811115610e1557600080fd5b602083019150836020828501011115610e2d57600080fd5b9250929050565b60008060008060608587031215610e4a57600080fd5b8435935060208501359250604085013567ffffffffffffffff811115610e6f57600080fd5b610e7b87828801610deb565b95989497509550505050565b60005b83811015610ea2578181015183820152602001610e8a565b838111156107a45750506000910152565b60008151808452610ecb816020860160208601610e87565b601f01601f19169290920160200192915050565b602081526000610c586020830184610eb3565b6001600160a01b0381168114610f0757600080fd5b50565b60008060008060008060a08789031215610f2357600080fd5b863595506020870135610f3581610ef2565b94506040870135935060608701359250608087013567ffffffffffffffff811115610f5f57600080fd5b610f6b89828a01610deb565b979a9699509497509295939492505050565b61ffff81168114610f0757600080fd5b8015158114610f0757600080fd5b600080600080600060a08688031215610fb357600080fd5b853594506020860135610fc581610ef2565b93506040860135610fd581610ef2565b92506060860135610fe581610f7d565b91506080860135610ff581610f8d565b809150509295509295909350565b60006020828403121561101557600080fd5b8151610c5881610f8d565b60006020828403121561103257600080fd5b8151610c5881610ef2565b60006020828403121561104f57600080fd5b5051919050565b634e487b7160e01b600052601160045260246000fd5b600081600019048311821515161561108657611086611056565b500290565b6000826110a857634e487b7160e01b600052601260045260246000fd5b500490565b6000828210156110bf576110bf611056565b500390565b600080604083850312156110d757600080fd5b82356110e281610ef2565b946020939093013593505050565b6000806040838503121561110357600080fd5b825161110e81610ef2565b602084015190925061111f81610f7d565b809150509250929050565b6000825161113c818460208701610e87565b919091019291505056fea2646970667358221220b69c4ab3fca3593bfc5da9a7af340d75657445e2ec04baa207b9ec6a5d9c219b64736f6c634300080a0033",
    "linkReferences": {}
  },
  "methodIdentifiers": {
    "HUB()": "a4c52b86",
    "MODULE_GLOBALS()": "88ffe851",
    "getPublicationData(uint256,uint256)": "3f503892",
    "initializePublicationCollectModule(uint256,uint256,bytes)": "c233f951",
    "processCollect(uint256,address,uint256,uint256,bytes)": "e49c3dda"
  },
  "id": 12
}